{
  "contractName": "Network",
  "abi": [
    {
      "constant": true,
      "inputs": [
        {
          "name": "",
          "type": "address"
        }
      ],
      "name": "addressId",
      "outputs": [
        {
          "name": "",
          "type": "string"
        }
      ],
      "payable": false,
      "stateMutability": "view",
      "type": "function"
    },
    {
      "constant": true,
      "inputs": [
        {
          "name": "",
          "type": "address"
        }
      ],
      "name": "users",
      "outputs": [
        {
          "name": "id",
          "type": "string"
        },
        {
          "name": "name",
          "type": "string"
        },
        {
          "name": "email",
          "type": "string"
        },
        {
          "name": "image",
          "type": "string"
        },
        {
          "name": "bio",
          "type": "string"
        },
        {
          "name": "pointId",
          "type": "uint256"
        },
        {
          "name": "exist",
          "type": "bool"
        }
      ],
      "payable": false,
      "stateMutability": "view",
      "type": "function"
    },
    {
      "constant": true,
      "inputs": [
        {
          "name": "",
          "type": "string"
        }
      ],
      "name": "idAddress",
      "outputs": [
        {
          "name": "",
          "type": "address"
        }
      ],
      "payable": false,
      "stateMutability": "view",
      "type": "function"
    },
    {
      "inputs": [],
      "payable": false,
      "stateMutability": "nonpayable",
      "type": "constructor"
    },
    {
      "anonymous": false,
      "inputs": [],
      "name": "addUserEvent",
      "type": "event"
    },
    {
      "anonymous": false,
      "inputs": [],
      "name": "editUserEvent",
      "type": "event"
    },
    {
      "anonymous": false,
      "inputs": [],
      "name": "addPointEvent",
      "type": "event"
    },
    {
      "anonymous": false,
      "inputs": [],
      "name": "deletePointEvent",
      "type": "event"
    },
    {
      "anonymous": false,
      "inputs": [],
      "name": "addVerifierEvent",
      "type": "event"
    },
    {
      "anonymous": false,
      "inputs": [],
      "name": "respondPointEvent",
      "type": "event"
    },
    {
      "constant": true,
      "inputs": [],
      "name": "existUser",
      "outputs": [
        {
          "name": "",
          "type": "bool"
        }
      ],
      "payable": false,
      "stateMutability": "view",
      "type": "function"
    },
    {
      "constant": false,
      "inputs": [
        {
          "name": "id",
          "type": "string"
        },
        {
          "name": "name",
          "type": "string"
        },
        {
          "name": "email",
          "type": "string"
        }
      ],
      "name": "addUser",
      "outputs": [],
      "payable": false,
      "stateMutability": "nonpayable",
      "type": "function"
    },
    {
      "constant": false,
      "inputs": [
        {
          "name": "name",
          "type": "string"
        },
        {
          "name": "email",
          "type": "string"
        },
        {
          "name": "image",
          "type": "string"
        },
        {
          "name": "bio",
          "type": "string"
        }
      ],
      "name": "editUser",
      "outputs": [],
      "payable": false,
      "stateMutability": "nonpayable",
      "type": "function"
    },
    {
      "constant": false,
      "inputs": [
        {
          "name": "heading",
          "type": "string"
        },
        {
          "name": "section",
          "type": "string"
        },
        {
          "name": "text",
          "type": "string"
        },
        {
          "name": "date",
          "type": "string"
        }
      ],
      "name": "addPoint",
      "outputs": [],
      "payable": false,
      "stateMutability": "nonpayable",
      "type": "function"
    },
    {
      "constant": true,
      "inputs": [],
      "name": "getPointsLength",
      "outputs": [
        {
          "name": "",
          "type": "uint256"
        }
      ],
      "payable": false,
      "stateMutability": "view",
      "type": "function"
    },
    {
      "constant": true,
      "inputs": [
        {
          "name": "index",
          "type": "uint256"
        }
      ],
      "name": "getPointByIndex",
      "outputs": [
        {
          "name": "",
          "type": "uint256"
        },
        {
          "name": "",
          "type": "string"
        },
        {
          "name": "",
          "type": "string"
        },
        {
          "name": "",
          "type": "string"
        },
        {
          "name": "",
          "type": "string"
        }
      ],
      "payable": false,
      "stateMutability": "view",
      "type": "function"
    },
    {
      "constant": true,
      "inputs": [],
      "name": "getPendingVerificationsLength",
      "outputs": [
        {
          "name": "",
          "type": "uint256"
        }
      ],
      "payable": false,
      "stateMutability": "view",
      "type": "function"
    },
    {
      "constant": true,
      "inputs": [
        {
          "name": "index",
          "type": "uint256"
        }
      ],
      "name": "getPendingVerificationByIndex",
      "outputs": [
        {
          "name": "",
          "type": "string"
        },
        {
          "name": "",
          "type": "string"
        },
        {
          "name": "",
          "type": "uint256"
        },
        {
          "name": "",
          "type": "string"
        },
        {
          "name": "",
          "type": "string"
        },
        {
          "name": "",
          "type": "string"
        },
        {
          "name": "",
          "type": "string"
        }
      ],
      "payable": false,
      "stateMutability": "view",
      "type": "function"
    },
    {
      "constant": true,
      "inputs": [
        {
          "name": "pointId",
          "type": "uint256"
        }
      ],
      "name": "getPendingVerifiersLength",
      "outputs": [
        {
          "name": "",
          "type": "uint256"
        }
      ],
      "payable": false,
      "stateMutability": "view",
      "type": "function"
    },
    {
      "constant": true,
      "inputs": [
        {
          "name": "pointId",
          "type": "uint256"
        }
      ],
      "name": "getApprovedVerifiersLength",
      "outputs": [
        {
          "name": "",
          "type": "uint256"
        }
      ],
      "payable": false,
      "stateMutability": "view",
      "type": "function"
    },
    {
      "constant": true,
      "inputs": [
        {
          "name": "pointId",
          "type": "uint256"
        },
        {
          "name": "index",
          "type": "uint256"
        }
      ],
      "name": "getPendingVerifiersByIndex",
      "outputs": [
        {
          "name": "",
          "type": "string"
        }
      ],
      "payable": false,
      "stateMutability": "view",
      "type": "function"
    },
    {
      "constant": true,
      "inputs": [
        {
          "name": "pointId",
          "type": "uint256"
        },
        {
          "name": "index",
          "type": "uint256"
        }
      ],
      "name": "getApprovedVerifiersByIndex",
      "outputs": [
        {
          "name": "",
          "type": "string"
        }
      ],
      "payable": false,
      "stateMutability": "view",
      "type": "function"
    },
    {
      "constant": false,
      "inputs": [
        {
          "name": "pointId",
          "type": "uint256"
        }
      ],
      "name": "deletePoint",
      "outputs": [],
      "payable": false,
      "stateMutability": "nonpayable",
      "type": "function"
    },
    {
      "constant": false,
      "inputs": [
        {
          "name": "pointId",
          "type": "uint256"
        },
        {
          "name": "verifierId",
          "type": "string"
        }
      ],
      "name": "addVerifier",
      "outputs": [],
      "payable": false,
      "stateMutability": "nonpayable",
      "type": "function"
    },
    {
      "constant": false,
      "inputs": [
        {
          "name": "index",
          "type": "uint256"
        },
        {
          "name": "response",
          "type": "bool"
        }
      ],
      "name": "respondPoint",
      "outputs": [],
      "payable": false,
      "stateMutability": "nonpayable",
      "type": "function"
    },
    {
      "constant": false,
      "inputs": [
        {
          "name": "addr",
          "type": "address"
        }
      ],
      "name": "addConnection",
      "outputs": [],
      "payable": false,
      "stateMutability": "nonpayable",
      "type": "function"
    },
    {
      "constant": true,
      "inputs": [],
      "name": "getConnectionsLength",
      "outputs": [
        {
          "name": "",
          "type": "uint256"
        }
      ],
      "payable": false,
      "stateMutability": "view",
      "type": "function"
    },
    {
      "constant": true,
      "inputs": [
        {
          "name": "idx",
          "type": "uint256"
        }
      ],
      "name": "getConnectionsByIndex",
      "outputs": [
        {
          "name": "",
          "type": "address"
        }
      ],
      "payable": false,
      "stateMutability": "view",
      "type": "function"
    }
  ],
  "bytecode": "0x608060405234801561001057600080fd5b50615faf80620000216000396000f3fe608060405234801561001057600080fd5b50600436106101375760003560e01c806392225ade116100b8578063b2deff371161007c578063b2deff3714610c54578063bca99b4214610ed4578063d00e1f4a14610ef2578063e4c8a56614611172578063e4e94a8a1461143c578063f63b210c1461153757610137565b806392225ade1461059a57806395c5fed4146105b85780639f446489146107a1578063a87430ba14610993578063b1df0e5c14610c1257610137565b80634d7290d4116100ff5780634d7290d414610403578063532caf1e14610421578063677dea1d146104e65780636b3f68301461052a5780638a3925111461056c57610137565b806306a150121461013c578063078002ac146101aa5780632b4a2ab2146102675780634945cf2c146102a15780634cd4f5c214610352575b600080fd5b6101686004803603602081101561015257600080fd5b8101908080359060200190929190505050611559565b604051808273ffffffffffffffffffffffffffffffffffffffff1673ffffffffffffffffffffffffffffffffffffffff16815260200191505060405180910390f35b6101ec600480360360208110156101c057600080fd5b81019080803573ffffffffffffffffffffffffffffffffffffffff169060200190929190505050611684565b6040518080602001828103825283818151815260200191508051906020019080838360005b8381101561022c578082015181840152602081019050610211565b50505050905090810190601f1680156102595780820380516001836020036101000a031916815260200191505b509250505060405180910390f35b61029f6004803603604081101561027d57600080fd5b8101908080359060200190929190803515159060200190929190505050611734565b005b6102d7600480360360408110156102b757600080fd5b810190808035906020019092919080359060200190929190505050611fdf565b6040518080602001828103825283818151815260200191508051906020019080838360005b838110156103175780820151818401526020810190506102fc565b50505050905090810190601f1680156103445780820380516001836020036101000a031916815260200191505b509250505060405180910390f35b6103886004803603604081101561036857600080fd5b8101908080359060200190929190803590602001909291905050506125d7565b6040518080602001828103825283818151815260200191508051906020019080838360005b838110156103c85780820151818401526020810190506103ad565b50505050905090810190601f1680156103f55780820380516001836020036101000a031916815260200191505b509250505060405180910390f35b61040b612bcf565b6040518082815260200191505060405180910390f35b6104e46004803603604081101561043757600080fd5b81019080803590602001909291908035906020019064010000000081111561045e57600080fd5b82018360208201111561047057600080fd5b8035906020019184600183028401116401000000008311171561049257600080fd5b91908080601f016020809104026020016040519081016040528093929190818152602001838380828437600081840152601f19601f820116905080830192505050505050509192919290505050612c75565b005b610528600480360360208110156104fc57600080fd5b81019080803573ffffffffffffffffffffffffffffffffffffffff1690602001909291905050506132b3565b005b6105566004803603602081101561054057600080fd5b810190808035906020019092919050505061340e565b6040518082815260200191505060405180910390f35b6105986004803603602081101561058257600080fd5b8101908080359060200190929190505050613537565b005b6105a2613e11565b6040518082815260200191505060405180910390f35b61079f600480360360608110156105ce57600080fd5b81019080803590602001906401000000008111156105eb57600080fd5b8201836020820111156105fd57600080fd5b8035906020019184600183028401116401000000008311171561061f57600080fd5b91908080601f016020809104026020016040519081016040528093929190818152602001838380828437600081840152601f19601f8201169050808301925050505050505091929192908035906020019064010000000081111561068257600080fd5b82018360208201111561069457600080fd5b803590602001918460018302840111640100000000831117156106b657600080fd5b91908080601f016020809104026020016040519081016040528093929190818152602001838380828437600081840152601f19601f8201169050808301925050505050505091929192908035906020019064010000000081111561071957600080fd5b82018360208201111561072b57600080fd5b8035906020019184600183028401116401000000008311171561074d57600080fd5b91908080601f016020809104026020016040519081016040528093929190818152602001838380828437600081840152601f19601f820116905080830192505050505050509192919290505050613eb7565b005b6107cd600480360360208110156107b757600080fd5b81019080803590602001909291905050506143ba565b6040518086815260200180602001806020018060200180602001858103855289818151815260200191508051906020019080838360005b8381101561081f578082015181840152602081019050610804565b50505050905090810190601f16801561084c5780820380516001836020036101000a031916815260200191505b50858103845288818151815260200191508051906020019080838360005b8381101561088557808201518184015260208101905061086a565b50505050905090810190601f1680156108b25780820380516001836020036101000a031916815260200191505b50858103835287818151815260200191508051906020019080838360005b838110156108eb5780820151818401526020810190506108d0565b50505050905090810190601f1680156109185780820380516001836020036101000a031916815260200191505b50858103825286818151815260200191508051906020019080838360005b83811015610951578082015181840152602081019050610936565b50505050905090810190601f16801561097e5780820380516001836020036101000a031916815260200191505b50995050505050505050505060405180910390f35b6109d5600480360360208110156109a957600080fd5b81019080803573ffffffffffffffffffffffffffffffffffffffff169060200190929190505050614925565b6040518080602001806020018060200180602001806020018881526020018715151515815260200186810386528d818151815260200191508051906020019080838360005b83811015610a35578082015181840152602081019050610a1a565b50505050905090810190601f168015610a625780820380516001836020036101000a031916815260200191505b5086810385528c818151815260200191508051906020019080838360005b83811015610a9b578082015181840152602081019050610a80565b50505050905090810190601f168015610ac85780820380516001836020036101000a031916815260200191505b5086810384528b818151815260200191508051906020019080838360005b83811015610b01578082015181840152602081019050610ae6565b50505050905090810190601f168015610b2e5780820380516001836020036101000a031916815260200191505b5086810383528a818151815260200191508051906020019080838360005b83811015610b67578082015181840152602081019050610b4c565b50505050905090810190601f168015610b945780820380516001836020036101000a031916815260200191505b50868103825289818151815260200191508051906020019080838360005b83811015610bcd578082015181840152602081019050610bb2565b50505050905090810190601f168015610bfa5780820380516001836020036101000a031916815260200191505b509c5050505050505050505050505060405180910390f35b610c3e60048036036020811015610c2857600080fd5b8101908080359060200190929190505050614c6c565b6040518082815260200191505060405180910390f35b610ed260048036036080811015610c6a57600080fd5b8101908080359060200190640100000000811115610c8757600080fd5b820183602082011115610c9957600080fd5b80359060200191846001830284011164010000000083111715610cbb57600080fd5b91908080601f016020809104026020016040519081016040528093929190818152602001838380828437600081840152601f19601f82011690508083019250505050505050919291929080359060200190640100000000811115610d1e57600080fd5b820183602082011115610d3057600080fd5b80359060200191846001830284011164010000000083111715610d5257600080fd5b91908080601f016020809104026020016040519081016040528093929190818152602001838380828437600081840152601f19601f82011690508083019250505050505050919291929080359060200190640100000000811115610db557600080fd5b820183602082011115610dc757600080fd5b80359060200191846001830284011164010000000083111715610de957600080fd5b91908080601f016020809104026020016040519081016040528093929190818152602001838380828437600081840152601f19601f82011690508083019250505050505050919291929080359060200190640100000000811115610e4c57600080fd5b820183602082011115610e5e57600080fd5b80359060200191846001830284011164010000000083111715610e8057600080fd5b91908080601f016020809104026020016040519081016040528093929190818152602001838380828437600081840152601f19601f820116905080830192505050505050509192919290505050614d95565b005b610edc6150ff565b6040518082815260200191505060405180910390f35b61117060048036036080811015610f0857600080fd5b8101908080359060200190640100000000811115610f2557600080fd5b820183602082011115610f3757600080fd5b80359060200191846001830284011164010000000083111715610f5957600080fd5b91908080601f016020809104026020016040519081016040528093929190818152602001838380828437600081840152601f19601f82011690508083019250505050505050919291929080359060200190640100000000811115610fbc57600080fd5b820183602082011115610fce57600080fd5b80359060200191846001830284011164010000000083111715610ff057600080fd5b91908080601f016020809104026020016040519081016040528093929190818152602001838380828437600081840152601f19601f8201169050808301925050505050505091929192908035906020019064010000000081111561105357600080fd5b82018360208201111561106557600080fd5b8035906020019184600183028401116401000000008311171561108757600080fd5b91908080601f016020809104026020016040519081016040528093929190818152602001838380828437600081840152601f19601f820116905080830192505050505050509192919290803590602001906401000000008111156110ea57600080fd5b8201836020820111156110fc57600080fd5b8035906020019184600183028401116401000000008311171561111e57600080fd5b91908080601f016020809104026020016040519081016040528093929190818152602001838380828437600081840152601f19601f8201169050808301925050505050505091929192905050506151a5565b005b61119e6004803603602081101561118857600080fd5b810190808035906020019092919050505061538c565b6040518080602001806020018881526020018060200180602001806020018060200187810387528e818151815260200191508051906020019080838360005b838110156111f85780820151818401526020810190506111dd565b50505050905090810190601f1680156112255780820380516001836020036101000a031916815260200191505b5087810386528d818151815260200191508051906020019080838360005b8381101561125e578082015181840152602081019050611243565b50505050905090810190601f16801561128b5780820380516001836020036101000a031916815260200191505b5087810385528b818151815260200191508051906020019080838360005b838110156112c45780820151818401526020810190506112a9565b50505050905090810190601f1680156112f15780820380516001836020036101000a031916815260200191505b5087810384528a818151815260200191508051906020019080838360005b8381101561132a57808201518184015260208101905061130f565b50505050905090810190601f1680156113575780820380516001836020036101000a031916815260200191505b50878103835289818151815260200191508051906020019080838360005b83811015611390578082015181840152602081019050611375565b50505050905090810190601f1680156113bd5780820380516001836020036101000a031916815260200191505b50878103825288818151815260200191508051906020019080838360005b838110156113f65780820151818401526020810190506113db565b50505050905090810190601f1680156114235780820380516001836020036101000a031916815260200191505b509d505050505050505050505050505060405180910390f35b6114f56004803603602081101561145257600080fd5b810190808035906020019064010000000081111561146f57600080fd5b82018360208201111561148157600080fd5b803590602001918460018302840111640100000000831117156114a357600080fd5b91908080601f016020809104026020016040519081016040528093929190818152602001838380828437600081840152601f19601f820116905080830192505050505050509192919290505050615b41565b604051808273ffffffffffffffffffffffffffffffffffffffff1673ffffffffffffffffffffffffffffffffffffffff16815260200191505060405180910390f35b61153f615b8a565b604051808215151515815260200191505060405180910390f35b6000600260003373ffffffffffffffffffffffffffffffffffffffff1673ffffffffffffffffffffffffffffffffffffffff16815260200190815260200160002060060160009054906101000a900460ff166115b457600080fd5b600260003373ffffffffffffffffffffffffffffffffffffffff1673ffffffffffffffffffffffffffffffffffffffff168152602001908152602001600020600a0180549050821061160557600080fd5b600260003373ffffffffffffffffffffffffffffffffffffffff1673ffffffffffffffffffffffffffffffffffffffff168152602001908152602001600020600a01828154811061165257fe5b9060005260206000200160009054906101000a900473ffffffffffffffffffffffffffffffffffffffff169050919050565b60016020528060005260406000206000915090508054600181600116156101000203166002900480601f01602080910402602001604051908101604052809291908181526020018280546001816001161561010002031660029004801561172c5780601f106117015761010080835404028352916020019161172c565b820191906000526020600020905b81548152906001019060200180831161170f57829003601f168201915b505050505081565b600260003373ffffffffffffffffffffffffffffffffffffffff1673ffffffffffffffffffffffffffffffffffffffff16815260200190815260200160002060060160009054906101000a900460ff1661178d57600080fd5b600260003373ffffffffffffffffffffffffffffffffffffffff1673ffffffffffffffffffffffffffffffffffffffff1681526020019081526020016000206009018054905082106117de57600080fd5b6117e6615be1565b600260003373ffffffffffffffffffffffffffffffffffffffff1673ffffffffffffffffffffffffffffffffffffffff168152602001908152602001600020600901838154811061183357fe5b90600052602060002090600202016040518060400160405290816000820160009054906101000a900473ffffffffffffffffffffffffffffffffffffffff1673ffffffffffffffffffffffffffffffffffffffff1673ffffffffffffffffffffffffffffffffffffffff168152602001600182015481525050905081156119775760026000826000015173ffffffffffffffffffffffffffffffffffffffff1673ffffffffffffffffffffffffffffffffffffffff1681526020019081526020016000206008016000826020015181526020019081526020016000206005013390806001815401808255809150509060018203906000526020600020016000909192909190916101000a81548173ffffffffffffffffffffffffffffffffffffffff021916908373ffffffffffffffffffffffffffffffffffffffff160217905550505b600060026000836000015173ffffffffffffffffffffffffffffffffffffffff1673ffffffffffffffffffffffffffffffffffffffff168152602001908152602001600020600801600083602001518152602001908152602001600020600401805490509050600080905060008090505b82811015611c26573373ffffffffffffffffffffffffffffffffffffffff1660026000866000015173ffffffffffffffffffffffffffffffffffffffff1673ffffffffffffffffffffffffffffffffffffffff1681526020019081526020016000206008016000866020015181526020019081526020016000206004018281548110611a7057fe5b9060005260206000200160009054906101000a900473ffffffffffffffffffffffffffffffffffffffff1673ffffffffffffffffffffffffffffffffffffffff161415611abc57600191505b818015611acb57506001830381105b15611c195760026000856000015173ffffffffffffffffffffffffffffffffffffffff1673ffffffffffffffffffffffffffffffffffffffff1681526020019081526020016000206008016000856020015181526020019081526020016000206004016001820181548110611b3c57fe5b9060005260206000200160009054906101000a900473ffffffffffffffffffffffffffffffffffffffff1660026000866000015173ffffffffffffffffffffffffffffffffffffffff1673ffffffffffffffffffffffffffffffffffffffff1681526020019081526020016000206008016000866020015181526020019081526020016000206004018281548110611bd057fe5b9060005260206000200160006101000a81548173ffffffffffffffffffffffffffffffffffffffff021916908373ffffffffffffffffffffffffffffffffffffffff1602179055505b80806001019150506119e8565b5060026000846000015173ffffffffffffffffffffffffffffffffffffffff1673ffffffffffffffffffffffffffffffffffffffff1681526020019081526020016000206008016000846020015181526020019081526020016000206004016001830381548110611c9357fe5b9060005260206000200160006101000a81549073ffffffffffffffffffffffffffffffffffffffff021916905560026000846000015173ffffffffffffffffffffffffffffffffffffffff1673ffffffffffffffffffffffffffffffffffffffff168152602001908152602001600020600801600084602001518152602001908152602001600020600401805480919060019003611d319190615c11565b50600260003373ffffffffffffffffffffffffffffffffffffffff1673ffffffffffffffffffffffffffffffffffffffff16815260200190815260200160002060090180549050915060008590505b60018303811015611ec557600260003373ffffffffffffffffffffffffffffffffffffffff1673ffffffffffffffffffffffffffffffffffffffff1681526020019081526020016000206009016001820181548110611ddb57fe5b9060005260206000209060020201600260003373ffffffffffffffffffffffffffffffffffffffff1673ffffffffffffffffffffffffffffffffffffffff1681526020019081526020016000206009018281548110611e3657fe5b90600052602060002090600202016000820160009054906101000a900473ffffffffffffffffffffffffffffffffffffffff168160000160006101000a81548173ffffffffffffffffffffffffffffffffffffffff021916908373ffffffffffffffffffffffffffffffffffffffff160217905550600182015481600101559050508080600101915050611d80565b50600260003373ffffffffffffffffffffffffffffffffffffffff1673ffffffffffffffffffffffffffffffffffffffff1681526020019081526020016000206009016001830381548110611f1657fe5b9060005260206000209060020201600080820160006101000a81549073ffffffffffffffffffffffffffffffffffffffff021916905560018201600090555050600260003373ffffffffffffffffffffffffffffffffffffffff1673ffffffffffffffffffffffffffffffffffffffff168152602001908152602001600020600901805480919060019003611fab9190615c3d565b507f32016053efad0dc8d9a0cd189df4e0cdf5e135546e52ec07e34ccc14630afbcb60405160405180910390a15050505050565b6060600260003373ffffffffffffffffffffffffffffffffffffffff1673ffffffffffffffffffffffffffffffffffffffff16815260200190815260200160002060060160009054906101000a900460ff1661203a57600080fd5b600260003373ffffffffffffffffffffffffffffffffffffffff1673ffffffffffffffffffffffffffffffffffffffff168152602001908152602001600020600801600084815260200190815260200160002060060160009054906101000a900460ff166120a757600080fd5b6120af615c6f565b600260003373ffffffffffffffffffffffffffffffffffffffff1673ffffffffffffffffffffffffffffffffffffffff16815260200190815260200160002060080160008581526020019081526020016000206040518060e0016040529081600082018054600181600116156101000203166002900480601f0160208091040260200160405190810160405280929190818152602001828054600181600116156101000203166002900480156121a65780601f1061217b576101008083540402835291602001916121a6565b820191906000526020600020905b81548152906001019060200180831161218957829003601f168201915b50505050508152602001600182018054600181600116156101000203166002900480601f0160208091040260200160405190810160405280929190818152602001828054600181600116156101000203166002900480156122485780601f1061221d57610100808354040283529160200191612248565b820191906000526020600020905b81548152906001019060200180831161222b57829003601f168201915b50505050508152602001600282018054600181600116156101000203166002900480601f0160208091040260200160405190810160405280929190818152602001828054600181600116156101000203166002900480156122ea5780601f106122bf576101008083540402835291602001916122ea565b820191906000526020600020905b8154815290600101906020018083116122cd57829003601f168201915b50505050508152602001600382018054600181600116156101000203166002900480601f01602080910402602001604051908101604052809291908181526020018280546001816001161561010002031660029004801561238c5780601f106123615761010080835404028352916020019161238c565b820191906000526020600020905b81548152906001019060200180831161236f57829003601f168201915b505050505081526020016004820180548060200260200160405190810160405280929190818152602001828054801561241a57602002820191906000526020600020905b8160009054906101000a900473ffffffffffffffffffffffffffffffffffffffff1673ffffffffffffffffffffffffffffffffffffffff16815260200190600101908083116123d0575b50505050508152602001600582018054806020026020016040519081016040528092919081815260200182805480156124a857602002820191906000526020600020905b8160009054906101000a900473ffffffffffffffffffffffffffffffffffffffff1673ffffffffffffffffffffffffffffffffffffffff168152602001906001019080831161245e575b505050505081526020016006820160009054906101000a900460ff16151515158152505090508060a001515183106124df57600080fd5b600160008260a0015185815181106124f357fe5b602002602001015173ffffffffffffffffffffffffffffffffffffffff1673ffffffffffffffffffffffffffffffffffffffff1681526020019081526020016000208054600181600116156101000203166002900480601f0160208091040260200160405190810160405280929190818152602001828054600181600116156101000203166002900480156125c95780601f1061259e576101008083540402835291602001916125c9565b820191906000526020600020905b8154815290600101906020018083116125ac57829003601f168201915b505050505091505092915050565b6060600260003373ffffffffffffffffffffffffffffffffffffffff1673ffffffffffffffffffffffffffffffffffffffff16815260200190815260200160002060060160009054906101000a900460ff1661263257600080fd5b600260003373ffffffffffffffffffffffffffffffffffffffff1673ffffffffffffffffffffffffffffffffffffffff168152602001908152602001600020600801600084815260200190815260200160002060060160009054906101000a900460ff1661269f57600080fd5b6126a7615c6f565b600260003373ffffffffffffffffffffffffffffffffffffffff1673ffffffffffffffffffffffffffffffffffffffff16815260200190815260200160002060080160008581526020019081526020016000206040518060e0016040529081600082018054600181600116156101000203166002900480601f01602080910402602001604051908101604052809291908181526020018280546001816001161561010002031660029004801561279e5780601f106127735761010080835404028352916020019161279e565b820191906000526020600020905b81548152906001019060200180831161278157829003601f168201915b50505050508152602001600182018054600181600116156101000203166002900480601f0160208091040260200160405190810160405280929190818152602001828054600181600116156101000203166002900480156128405780601f1061281557610100808354040283529160200191612840565b820191906000526020600020905b81548152906001019060200180831161282357829003601f168201915b50505050508152602001600282018054600181600116156101000203166002900480601f0160208091040260200160405190810160405280929190818152602001828054600181600116156101000203166002900480156128e25780601f106128b7576101008083540402835291602001916128e2565b820191906000526020600020905b8154815290600101906020018083116128c557829003601f168201915b50505050508152602001600382018054600181600116156101000203166002900480601f0160208091040260200160405190810160405280929190818152602001828054600181600116156101000203166002900480156129845780601f1061295957610100808354040283529160200191612984565b820191906000526020600020905b81548152906001019060200180831161296757829003601f168201915b5050505050815260200160048201805480602002602001604051908101604052809291908181526020018280548015612a1257602002820191906000526020600020905b8160009054906101000a900473ffffffffffffffffffffffffffffffffffffffff1673ffffffffffffffffffffffffffffffffffffffff16815260200190600101908083116129c8575b5050505050815260200160058201805480602002602001604051908101604052809291908181526020018280548015612aa057602002820191906000526020600020905b8160009054906101000a900473ffffffffffffffffffffffffffffffffffffffff1673ffffffffffffffffffffffffffffffffffffffff1681526020019060010190808311612a56575b505050505081526020016006820160009054906101000a900460ff16151515158152505090508060800151518310612ad757600080fd5b6001600082608001518581518110612aeb57fe5b602002602001015173ffffffffffffffffffffffffffffffffffffffff1673ffffffffffffffffffffffffffffffffffffffff1681526020019081526020016000208054600181600116156101000203166002900480601f016020809104026020016040519081016040528092919081815260200182805460018160011615610100020316600290048015612bc15780601f10612b9657610100808354040283529160200191612bc1565b820191906000526020600020905b815481529060010190602001808311612ba457829003601f168201915b505050505091505092915050565b6000600260003373ffffffffffffffffffffffffffffffffffffffff1673ffffffffffffffffffffffffffffffffffffffff16815260200190815260200160002060060160009054906101000a900460ff16612c2a57600080fd5b600260003373ffffffffffffffffffffffffffffffffffffffff1673ffffffffffffffffffffffffffffffffffffffff16815260200190815260200160002060070180549050905090565b600260003373ffffffffffffffffffffffffffffffffffffffff1673ffffffffffffffffffffffffffffffffffffffff16815260200190815260200160002060060160009054906101000a900460ff16612cce57600080fd5b600080826040518082805190602001908083835b60208310612d055780518252602082019150602081019050602083039250612ce2565b6001836020036101000a038019825116818451168082178552505050505050905001915050908152602001604051809103902060009054906101000a900473ffffffffffffffffffffffffffffffffffffffff169050600260008273ffffffffffffffffffffffffffffffffffffffff1673ffffffffffffffffffffffffffffffffffffffff16815260200190815260200160002060060160009054906101000a900460ff16612db457600080fd5b600260003373ffffffffffffffffffffffffffffffffffffffff1673ffffffffffffffffffffffffffffffffffffffff168152602001908152602001600020600801600084815260200190815260200160002060060160009054906101000a900460ff16612e2157600080fd5b6060600260003373ffffffffffffffffffffffffffffffffffffffff1673ffffffffffffffffffffffffffffffffffffffff1681526020019081526020016000206008016000858152602001908152602001600020600401805480602002602001604051908101604052809291908181526020018280548015612ef957602002820191906000526020600020905b8160009054906101000a900473ffffffffffffffffffffffffffffffffffffffff1673ffffffffffffffffffffffffffffffffffffffff1681526020019060010190808311612eaf575b5050505050905060008090505b8151811015612f6b578273ffffffffffffffffffffffffffffffffffffffff16828281518110612f3257fe5b602002602001015173ffffffffffffffffffffffffffffffffffffffff161415612f5e575050506132af565b8080600101915050612f06565b506060600260003373ffffffffffffffffffffffffffffffffffffffff1673ffffffffffffffffffffffffffffffffffffffff168152602001908152602001600020600801600086815260200190815260200160002060050180548060200260200160405190810160405280929190818152602001828054801561304457602002820191906000526020600020905b8160009054906101000a900473ffffffffffffffffffffffffffffffffffffffff1673ffffffffffffffffffffffffffffffffffffffff1681526020019060010190808311612ffa575b5050505050905060008090505b81518110156130b7578373ffffffffffffffffffffffffffffffffffffffff1682828151811061307d57fe5b602002602001015173ffffffffffffffffffffffffffffffffffffffff1614156130aa57505050506132af565b8080600101915050613051565b50600260003373ffffffffffffffffffffffffffffffffffffffff1673ffffffffffffffffffffffffffffffffffffffff16815260200190815260200160002060080160008681526020019081526020016000206004018390806001815401808255809150509060018203906000526020600020016000909192909190916101000a81548173ffffffffffffffffffffffffffffffffffffffff021916908373ffffffffffffffffffffffffffffffffffffffff1602179055505061317a615be1565b33816000019073ffffffffffffffffffffffffffffffffffffffff16908173ffffffffffffffffffffffffffffffffffffffff168152505085816020018181525050600260008573ffffffffffffffffffffffffffffffffffffffff1673ffffffffffffffffffffffffffffffffffffffff168152602001908152602001600020600901819080600181540180825580915050906001820390600052602060002090600202016000909192909190915060008201518160000160006101000a81548173ffffffffffffffffffffffffffffffffffffffff021916908373ffffffffffffffffffffffffffffffffffffffff160217905550602082015181600101555050507fdb61aa5c49e1bf3791b23f24831235a1326f3679dbf8311acf74ebc8c645fcb260405160405180910390a1505050505b5050565b600260003373ffffffffffffffffffffffffffffffffffffffff1673ffffffffffffffffffffffffffffffffffffffff16815260200190815260200160002060060160009054906101000a900460ff1661330c57600080fd5b600260008273ffffffffffffffffffffffffffffffffffffffff1673ffffffffffffffffffffffffffffffffffffffff16815260200190815260200160002060060160009054906101000a900460ff1661336557600080fd5b600260003373ffffffffffffffffffffffffffffffffffffffff1673ffffffffffffffffffffffffffffffffffffffff168152602001908152602001600020600a018190806001815401808255809150509060018203906000526020600020016000909192909190916101000a81548173ffffffffffffffffffffffffffffffffffffffff021916908373ffffffffffffffffffffffffffffffffffffffff1602179055505050565b6000600260003373ffffffffffffffffffffffffffffffffffffffff1673ffffffffffffffffffffffffffffffffffffffff16815260200190815260200160002060060160009054906101000a900460ff1661346957600080fd5b600260003373ffffffffffffffffffffffffffffffffffffffff1673ffffffffffffffffffffffffffffffffffffffff168152602001908152602001600020600801600083815260200190815260200160002060060160009054906101000a900460ff166134d657600080fd5b600260003373ffffffffffffffffffffffffffffffffffffffff1673ffffffffffffffffffffffffffffffffffffffff1681526020019081526020016000206008016000838152602001908152602001600020600501805490509050919050565b600260003373ffffffffffffffffffffffffffffffffffffffff1673ffffffffffffffffffffffffffffffffffffffff16815260200190815260200160002060060160009054906101000a900460ff1661359057600080fd5b600260003373ffffffffffffffffffffffffffffffffffffffff1673ffffffffffffffffffffffffffffffffffffffff168152602001908152602001600020600801600082815260200190815260200160002060060160009054906101000a900460ff166135fd57600080fd5b6060600260003373ffffffffffffffffffffffffffffffffffffffff1673ffffffffffffffffffffffffffffffffffffffff16815260200190815260200160002060080160008381526020019081526020016000206004018054806020026020016040519081016040528092919081815260200182805480156136d557602002820191906000526020600020905b8160009054906101000a900473ffffffffffffffffffffffffffffffffffffffff1673ffffffffffffffffffffffffffffffffffffffff168152602001906001019080831161368b575b5050505050905060008090505b8151811015613ac65760008282815181106136f957fe5b602002602001015190506000600260008373ffffffffffffffffffffffffffffffffffffffff1673ffffffffffffffffffffffffffffffffffffffff168152602001908152602001600020600901805490509050600080905060008090505b828110156139cf573373ffffffffffffffffffffffffffffffffffffffff16600260008673ffffffffffffffffffffffffffffffffffffffff1673ffffffffffffffffffffffffffffffffffffffff16815260200190815260200160002060090182815481106137c457fe5b906000526020600020906002020160000160009054906101000a900473ffffffffffffffffffffffffffffffffffffffff1673ffffffffffffffffffffffffffffffffffffffff16148015613876575086600260008673ffffffffffffffffffffffffffffffffffffffff1673ffffffffffffffffffffffffffffffffffffffff168152602001908152602001600020600901828154811061386257fe5b906000526020600020906002020160010154145b1561388057600191505b81801561388f57506001830381105b156139c257600260008573ffffffffffffffffffffffffffffffffffffffff1673ffffffffffffffffffffffffffffffffffffffff16815260200190815260200160002060090160018201815481106138e457fe5b9060005260206000209060020201600260008673ffffffffffffffffffffffffffffffffffffffff1673ffffffffffffffffffffffffffffffffffffffff168152602001908152602001600020600901828154811061393f57fe5b90600052602060002090600202016000820160009054906101000a900473ffffffffffffffffffffffffffffffffffffffff168160000160006101000a81548173ffffffffffffffffffffffffffffffffffffffff021916908373ffffffffffffffffffffffffffffffffffffffff160217905550600182015481600101559050505b8080600101915050613758565b50600260008473ffffffffffffffffffffffffffffffffffffffff1673ffffffffffffffffffffffffffffffffffffffff1681526020019081526020016000206009016001830381548110613a2057fe5b9060005260206000209060020201600080820160006101000a81549073ffffffffffffffffffffffffffffffffffffffff021916905560018201600090555050600260008473ffffffffffffffffffffffffffffffffffffffff1673ffffffffffffffffffffffffffffffffffffffff168152602001908152602001600020600901805480919060019003613ab59190615c3d565b5050505080806001019150506136e2565b506000600260003373ffffffffffffffffffffffffffffffffffffffff1673ffffffffffffffffffffffffffffffffffffffff168152602001908152602001600020600701805490509050600080905060008090505b82811015613c605784600260003373ffffffffffffffffffffffffffffffffffffffff1673ffffffffffffffffffffffffffffffffffffffff1681526020019081526020016000206007018281548110613b7257fe5b90600052602060002001541415613b8857600191505b818015613b9757506001830381105b15613c5357600260003373ffffffffffffffffffffffffffffffffffffffff1673ffffffffffffffffffffffffffffffffffffffff1681526020019081526020016000206007016001820181548110613bec57fe5b9060005260206000200154600260003373ffffffffffffffffffffffffffffffffffffffff1673ffffffffffffffffffffffffffffffffffffffff1681526020019081526020016000206007018281548110613c4457fe5b90600052602060002001819055505b8080600101915050613b1c565b50600260003373ffffffffffffffffffffffffffffffffffffffff1673ffffffffffffffffffffffffffffffffffffffff1681526020019081526020016000206007016001830381548110613cb157fe5b9060005260206000200160009055600260003373ffffffffffffffffffffffffffffffffffffffff1673ffffffffffffffffffffffffffffffffffffffff168152602001908152602001600020600701805480919060019003613d149190615cae565b50600260003373ffffffffffffffffffffffffffffffffffffffff1673ffffffffffffffffffffffffffffffffffffffff168152602001908152602001600020600801600085815260200190815260200160002060008082016000613d799190615cda565b600182016000613d899190615cda565b600282016000613d999190615cda565b600382016000613da99190615cda565b600482016000613db99190615d22565b600582016000613dc99190615d22565b6006820160006101000a81549060ff021916905550507feeea8197d6a6a35cf361af0bd9c83da39c3e9010ff5d25a507ccf1f8cdd7b11860405160405180910390a150505050565b6000600260003373ffffffffffffffffffffffffffffffffffffffff1673ffffffffffffffffffffffffffffffffffffffff16815260200190815260200160002060060160009054906101000a900460ff16613e6c57600080fd5b600260003373ffffffffffffffffffffffffffffffffffffffff1673ffffffffffffffffffffffffffffffffffffffff16815260200190815260200160002060090180549050905090565b600260003373ffffffffffffffffffffffffffffffffffffffff1673ffffffffffffffffffffffffffffffffffffffff16815260200190815260200160002060060160009054906101000a900460ff1615613f1157600080fd5b6002600080856040518082805190602001908083835b60208310613f4a5780518252602082019150602081019050602083039250613f27565b6001836020036101000a038019825116818451168082178552505050505050905001915050908152602001604051809103902060009054906101000a900473ffffffffffffffffffffffffffffffffffffffff1673ffffffffffffffffffffffffffffffffffffffff1673ffffffffffffffffffffffffffffffffffffffff16815260200190815260200160002060060160009054906101000a900460ff1615613ff357600080fd5b82600260003373ffffffffffffffffffffffffffffffffffffffff1673ffffffffffffffffffffffffffffffffffffffff1681526020019081526020016000206000019080519060200190614049929190615d43565b50336000846040518082805190602001908083835b60208310614081578051825260208201915060208101905060208303925061405e565b6001836020036101000a038019825116818451168082178552505050505050905001915050908152602001604051809103902060006101000a81548173ffffffffffffffffffffffffffffffffffffffff021916908373ffffffffffffffffffffffffffffffffffffffff16021790555082600160003373ffffffffffffffffffffffffffffffffffffffff1673ffffffffffffffffffffffffffffffffffffffff1681526020019081526020016000209080519060200190614145929190615d43565b5081600260003373ffffffffffffffffffffffffffffffffffffffff1673ffffffffffffffffffffffffffffffffffffffff168152602001908152602001600020600101908051906020019061419c929190615d43565b5080600260003373ffffffffffffffffffffffffffffffffffffffff1673ffffffffffffffffffffffffffffffffffffffff16815260200190815260200160002060020190805190602001906141f3929190615d43565b506040518060400160405280600f81526020017f696d616765732f757365722e706e670000000000000000000000000000000000815250600260003373ffffffffffffffffffffffffffffffffffffffff1673ffffffffffffffffffffffffffffffffffffffff168152602001908152602001600020600301908051906020019061427f929190615d43565b5060405180602001604052806000815250600260003373ffffffffffffffffffffffffffffffffffffffff1673ffffffffffffffffffffffffffffffffffffffff16815260200190815260200160002060040190805190602001906142e5929190615d43565b506000600260003373ffffffffffffffffffffffffffffffffffffffff1673ffffffffffffffffffffffffffffffffffffffff168152602001908152602001600020600501819055506001600260003373ffffffffffffffffffffffffffffffffffffffff1673ffffffffffffffffffffffffffffffffffffffff16815260200190815260200160002060060160006101000a81548160ff0219169083151502179055507fc8bb0382034e05a24a33fe7678456b140b4a75e52282fa8d85b2573b187c040660405160405180910390a1505050565b6000606080606080600260003373ffffffffffffffffffffffffffffffffffffffff1673ffffffffffffffffffffffffffffffffffffffff16815260200190815260200160002060060160009054906101000a900460ff1661441b57600080fd5b600260003373ffffffffffffffffffffffffffffffffffffffff1673ffffffffffffffffffffffffffffffffffffffff16815260200190815260200160002060070180549050861061446c57600080fd5b6000600260003373ffffffffffffffffffffffffffffffffffffffff1673ffffffffffffffffffffffffffffffffffffffff16815260200190815260200160002060070187815481106144bb57fe5b906000526020600020015490506144d0615c6f565b600260003373ffffffffffffffffffffffffffffffffffffffff1673ffffffffffffffffffffffffffffffffffffffff16815260200190815260200160002060080160008381526020019081526020016000206040518060e0016040529081600082018054600181600116156101000203166002900480601f0160208091040260200160405190810160405280929190818152602001828054600181600116156101000203166002900480156145c75780601f1061459c576101008083540402835291602001916145c7565b820191906000526020600020905b8154815290600101906020018083116145aa57829003601f168201915b50505050508152602001600182018054600181600116156101000203166002900480601f0160208091040260200160405190810160405280929190818152602001828054600181600116156101000203166002900480156146695780601f1061463e57610100808354040283529160200191614669565b820191906000526020600020905b81548152906001019060200180831161464c57829003601f168201915b50505050508152602001600282018054600181600116156101000203166002900480601f01602080910402602001604051908101604052809291908181526020018280546001816001161561010002031660029004801561470b5780601f106146e05761010080835404028352916020019161470b565b820191906000526020600020905b8154815290600101906020018083116146ee57829003601f168201915b50505050508152602001600382018054600181600116156101000203166002900480601f0160208091040260200160405190810160405280929190818152602001828054600181600116156101000203166002900480156147ad5780601f10614782576101008083540402835291602001916147ad565b820191906000526020600020905b81548152906001019060200180831161479057829003601f168201915b505050505081526020016004820180548060200260200160405190810160405280929190818152602001828054801561483b57602002820191906000526020600020905b8160009054906101000a900473ffffffffffffffffffffffffffffffffffffffff1673ffffffffffffffffffffffffffffffffffffffff16815260200190600101908083116147f1575b50505050508152602001600582018054806020026020016040519081016040528092919081815260200182805480156148c957602002820191906000526020600020905b8160009054906101000a900473ffffffffffffffffffffffffffffffffffffffff1673ffffffffffffffffffffffffffffffffffffffff168152602001906001019080831161487f575b505050505081526020016006820160009054906101000a900460ff161515151581525050905081816000015182602001518360600151846040015183935082925081915080905096509650965096509650505091939590929450565b6002602052806000526040600020600091509050806000018054600181600116156101000203166002900480601f0160208091040260200160405190810160405280929190818152602001828054600181600116156101000203166002900480156149d15780601f106149a6576101008083540402835291602001916149d1565b820191906000526020600020905b8154815290600101906020018083116149b457829003601f168201915b505050505090806001018054600181600116156101000203166002900480601f016020809104026020016040519081016040528092919081815260200182805460018160011615610100020316600290048015614a6f5780601f10614a4457610100808354040283529160200191614a6f565b820191906000526020600020905b815481529060010190602001808311614a5257829003601f168201915b505050505090806002018054600181600116156101000203166002900480601f016020809104026020016040519081016040528092919081815260200182805460018160011615610100020316600290048015614b0d5780601f10614ae257610100808354040283529160200191614b0d565b820191906000526020600020905b815481529060010190602001808311614af057829003601f168201915b505050505090806003018054600181600116156101000203166002900480601f016020809104026020016040519081016040528092919081815260200182805460018160011615610100020316600290048015614bab5780601f10614b8057610100808354040283529160200191614bab565b820191906000526020600020905b815481529060010190602001808311614b8e57829003601f168201915b505050505090806004018054600181600116156101000203166002900480601f016020809104026020016040519081016040528092919081815260200182805460018160011615610100020316600290048015614c495780601f10614c1e57610100808354040283529160200191614c49565b820191906000526020600020905b815481529060010190602001808311614c2c57829003601f168201915b5050505050908060050154908060060160009054906101000a900460ff16905087565b6000600260003373ffffffffffffffffffffffffffffffffffffffff1673ffffffffffffffffffffffffffffffffffffffff16815260200190815260200160002060060160009054906101000a900460ff16614cc757600080fd5b600260003373ffffffffffffffffffffffffffffffffffffffff1673ffffffffffffffffffffffffffffffffffffffff168152602001908152602001600020600801600083815260200190815260200160002060060160009054906101000a900460ff16614d3457600080fd5b600260003373ffffffffffffffffffffffffffffffffffffffff1673ffffffffffffffffffffffffffffffffffffffff1681526020019081526020016000206008016000838152602001908152602001600020600401805490509050919050565b600260003373ffffffffffffffffffffffffffffffffffffffff1673ffffffffffffffffffffffffffffffffffffffff16815260200190815260200160002060060160009054906101000a900460ff16614dee57600080fd5b614df6615c6f565b84816000018190525083816020018190525082816060018190525081816040018190525060018160c00190151590811515815250506001600260003373ffffffffffffffffffffffffffffffffffffffff1673ffffffffffffffffffffffffffffffffffffffff1681526020019081526020016000206005015401600260003373ffffffffffffffffffffffffffffffffffffffff1673ffffffffffffffffffffffffffffffffffffffff16815260200190815260200160002060050181905550600260003373ffffffffffffffffffffffffffffffffffffffff1673ffffffffffffffffffffffffffffffffffffffff168152602001908152602001600020600701600260003373ffffffffffffffffffffffffffffffffffffffff1673ffffffffffffffffffffffffffffffffffffffff16815260200190815260200160002060050154908060018154018082558091505090600182039060005260206000200160009091929091909150555080600260003373ffffffffffffffffffffffffffffffffffffffff1673ffffffffffffffffffffffffffffffffffffffff1681526020019081526020016000206008016000600260003373ffffffffffffffffffffffffffffffffffffffff1673ffffffffffffffffffffffffffffffffffffffff1681526020019081526020016000206005015481526020019081526020016000206000820151816000019080519060200190615017929190615dc3565b506020820151816001019080519060200190615034929190615dc3565b506040820151816002019080519060200190615051929190615dc3565b50606082015181600301908051906020019061506e929190615dc3565b50608082015181600401908051906020019061508b929190615e43565b5060a08201518160050190805190602001906150a8929190615e43565b5060c08201518160060160006101000a81548160ff0219169083151502179055509050507f7264c98ff9332a69aa51b855294e0951acf5168b8ae5d5755130b16c6d5f866660405160405180910390a15050505050565b6000600260003373ffffffffffffffffffffffffffffffffffffffff1673ffffffffffffffffffffffffffffffffffffffff16815260200190815260200160002060060160009054906101000a900460ff1661515a57600080fd5b600260003373ffffffffffffffffffffffffffffffffffffffff1673ffffffffffffffffffffffffffffffffffffffff168152602001908152602001600020600a0180549050905090565b600260003373ffffffffffffffffffffffffffffffffffffffff1673ffffffffffffffffffffffffffffffffffffffff16815260200190815260200160002060060160009054906101000a900460ff166151fe57600080fd5b83600260003373ffffffffffffffffffffffffffffffffffffffff1673ffffffffffffffffffffffffffffffffffffffff1681526020019081526020016000206001019080519060200190615254929190615d43565b5082600260003373ffffffffffffffffffffffffffffffffffffffff1673ffffffffffffffffffffffffffffffffffffffff16815260200190815260200160002060020190805190602001906152ab929190615d43565b5081600260003373ffffffffffffffffffffffffffffffffffffffff1673ffffffffffffffffffffffffffffffffffffffff1681526020019081526020016000206003019080519060200190615302929190615d43565b5080600260003373ffffffffffffffffffffffffffffffffffffffff1673ffffffffffffffffffffffffffffffffffffffff1681526020019081526020016000206004019080519060200190615359929190615d43565b507fb5afd3cd05be316a0889f2b233b5fb396f3f7d37172dbea63af7640a9567458a60405160405180910390a150505050565b6060806000606080606080600260003373ffffffffffffffffffffffffffffffffffffffff1673ffffffffffffffffffffffffffffffffffffffff16815260200190815260200160002060060160009054906101000a900460ff166153f057600080fd5b600260003373ffffffffffffffffffffffffffffffffffffffff1673ffffffffffffffffffffffffffffffffffffffff16815260200190815260200160002060090180549050881061544157600080fd5b615449615be1565b600260003373ffffffffffffffffffffffffffffffffffffffff1673ffffffffffffffffffffffffffffffffffffffff168152602001908152602001600020600901898154811061549657fe5b90600052602060002090600202016040518060400160405290816000820160009054906101000a900473ffffffffffffffffffffffffffffffffffffffff1673ffffffffffffffffffffffffffffffffffffffff1673ffffffffffffffffffffffffffffffffffffffff1681526020016001820154815250509050615519615c6f565b60026000836000015173ffffffffffffffffffffffffffffffffffffffff1673ffffffffffffffffffffffffffffffffffffffff1681526020019081526020016000206008016000836020015181526020019081526020016000206040518060e0016040529081600082018054600181600116156101000203166002900480601f0160208091040260200160405190810160405280929190818152602001828054600181600116156101000203166002900480156156185780601f106155ed57610100808354040283529160200191615618565b820191906000526020600020905b8154815290600101906020018083116155fb57829003601f168201915b50505050508152602001600182018054600181600116156101000203166002900480601f0160208091040260200160405190810160405280929190818152602001828054600181600116156101000203166002900480156156ba5780601f1061568f576101008083540402835291602001916156ba565b820191906000526020600020905b81548152906001019060200180831161569d57829003601f168201915b50505050508152602001600282018054600181600116156101000203166002900480601f01602080910402602001604051908101604052809291908181526020018280546001816001161561010002031660029004801561575c5780601f106157315761010080835404028352916020019161575c565b820191906000526020600020905b81548152906001019060200180831161573f57829003601f168201915b50505050508152602001600382018054600181600116156101000203166002900480601f0160208091040260200160405190810160405280929190818152602001828054600181600116156101000203166002900480156157fe5780601f106157d3576101008083540402835291602001916157fe565b820191906000526020600020905b8154815290600101906020018083116157e157829003601f168201915b505050505081526020016004820180548060200260200160405190810160405280929190818152602001828054801561588c57602002820191906000526020600020905b8160009054906101000a900473ffffffffffffffffffffffffffffffffffffffff1673ffffffffffffffffffffffffffffffffffffffff1681526020019060010190808311615842575b505050505081526020016005820180548060200260200160405190810160405280929190818152602001828054801561591a57602002820191906000526020600020905b8160009054906101000a900473ffffffffffffffffffffffffffffffffffffffff1673ffffffffffffffffffffffffffffffffffffffff16815260200190600101908083116158d0575b505050505081526020016006820160009054906101000a900460ff161515151581525050905060016000836000015173ffffffffffffffffffffffffffffffffffffffff1673ffffffffffffffffffffffffffffffffffffffff16815260200190815260200160002060026000846000015173ffffffffffffffffffffffffffffffffffffffff1673ffffffffffffffffffffffffffffffffffffffff16815260200190815260200160002060010183602001518360000151846020015185606001518660400151868054600181600116156101000203166002900480601f016020809104026020016040519081016040528092919081815260200182805460018160011615610100020316600290048015615a775780601f10615a4c57610100808354040283529160200191615a77565b820191906000526020600020905b815481529060010190602001808311615a5a57829003601f168201915b50505050509650858054600181600116156101000203166002900480601f016020809104026020016040519081016040528092919081815260200182805460018160011615610100020316600290048015615b135780601f10615ae857610100808354040283529160200191615b13565b820191906000526020600020905b815481529060010190602001808311615af657829003601f168201915b5050505050955083935082925081915080905098509850985098509850985098505050919395979092949650565b6000818051602081018201805184825260208301602085012081835280955050505050506000915054906101000a900473ffffffffffffffffffffffffffffffffffffffff1681565b6000600260003373ffffffffffffffffffffffffffffffffffffffff1673ffffffffffffffffffffffffffffffffffffffff16815260200190815260200160002060060160009054906101000a900460ff16905090565b6040518060400160405280600073ffffffffffffffffffffffffffffffffffffffff168152602001600081525090565b815481835581811115615c3857818360005260206000209182019101615c379190615ecd565b5b505050565b815481835581811115615c6a57600202816002028360005260206000209182019101615c699190615ef2565b5b505050565b6040518060e001604052806060815260200160608152602001606081526020016060815260200160608152602001606081526020016000151581525090565b815481835581811115615cd557818360005260206000209182019101615cd49190615ecd565b5b505050565b50805460018160011615610100020316600290046000825580601f10615d005750615d1f565b601f016020900490600052602060002090810190615d1e9190615ecd565b5b50565b5080546000825590600052602060002090810190615d409190615ecd565b50565b828054600181600116156101000203166002900490600052602060002090601f016020900481019282601f10615d8457805160ff1916838001178555615db2565b82800160010185558215615db2579182015b82811115615db1578251825591602001919060010190615d96565b5b509050615dbf9190615ecd565b5090565b828054600181600116156101000203166002900490600052602060002090601f016020900481019282601f10615e0457805160ff1916838001178555615e32565b82800160010185558215615e32579182015b82811115615e31578251825591602001919060010190615e16565b5b509050615e3f9190615ecd565b5090565b828054828255906000526020600020908101928215615ebc579160200282015b82811115615ebb5782518260006101000a81548173ffffffffffffffffffffffffffffffffffffffff021916908373ffffffffffffffffffffffffffffffffffffffff16021790555091602001919060010190615e63565b5b509050615ec99190615f40565b5090565b615eef91905b80821115615eeb576000816000905550600101615ed3565b5090565b90565b615f3d91905b80821115615f3957600080820160006101000a81549073ffffffffffffffffffffffffffffffffffffffff0219169055600182016000905550600201615ef8565b5090565b90565b615f8091905b80821115615f7c57600081816101000a81549073ffffffffffffffffffffffffffffffffffffffff021916905550600101615f46565b5090565b9056fea165627a7a72305820177226f4d5c29f48a4f45888228b6ccf7ac0da45150287ec067373282c5eeec70029",
  "source": "pragma solidity 0.5.8;\n\ncontract Network {\n\n    struct Point{\n        string heading;\n        string section;\n        string date;\n        string text;\n        address[] pendingVerifiers;\n        address[] approvedVerifiers;\n        bool exist;\n    }\n\n    struct PointVerification{\n        address owner;\n        uint pointId;\n    }\n\n    struct User{\n        string id;\n        string name;\n        string email;\n        string image;\n        string bio;\n        uint pointId;\n        bool exist;\n        uint[] pointsIdList;\n        mapping(uint => Point) points;\n        PointVerification[] pendingVerifications;\n        address[] connections;\n    }\n\n    mapping(string => address) public idAddress;\n    mapping(address => string) public addressId;\n    mapping(address => User) public users;\n\n    event addUserEvent ();\n    event editUserEvent ();\n    event addPointEvent();\n    event deletePointEvent();\n    event addVerifierEvent();\n    event respondPointEvent();\n\n    constructor () public {\n        // addCandidate(\"Candidate 1\");\n        // addCandidate(\"Candidate 2\");\n    }\n\n    function existUser() public view\n    returns (bool){\n        return users[msg.sender].exist;\n    }\n\n    function addUser(string memory id, string memory name, string memory email) public {\n        require(!users[msg.sender].exist);\n        require(!users[idAddress[id]].exist);\n        users[msg.sender].id = id;\n        idAddress[id] = msg.sender;\n        addressId[msg.sender] = id;\n        users[msg.sender].name = name;\n        users[msg.sender].email = email;\n        users[msg.sender].image = \"images/user.png\";\n        users[msg.sender].bio = \"\";\n        users[msg.sender].pointId = 0;\n        users[msg.sender].exist = true;\n        emit addUserEvent();\n    }\n\n    function editUser(string memory name, string memory email, string memory image, string memory bio) public {\n        require(users[msg.sender].exist);\n        users[msg.sender].name = name;\n        users[msg.sender].email = email;\n        users[msg.sender].image = image;\n        users[msg.sender].bio = bio;\n        emit editUserEvent();\n    }\n\n    function addPoint(string memory heading, string memory section, string memory text, string memory date) public {\n        require(users[msg.sender].exist);\n        Point memory p;\n        p.heading = heading;\n        p.section = section;\n        p.text = text;\n        p.date = date;\n        p.exist = true;\n        users[msg.sender].pointId = users[msg.sender].pointId + 1;\n        users[msg.sender].pointsIdList.push(users[msg.sender].pointId);\n        users[msg.sender].points[users[msg.sender].pointId] = p;\n        emit addPointEvent();\n    }\n\n    function getPointsLength() public view\n    returns (uint) {\n        require(users[msg.sender].exist);\n        return users[msg.sender].pointsIdList.length;\n    }\n\n    //returns pointId, heading, section, text, date \n    function getPointByIndex(uint index) public view\n    returns (uint, string memory, string memory, string memory, string memory) {\n        require(users[msg.sender].exist);\n        require(index < users[msg.sender].pointsIdList.length);\n        uint pointId = users[msg.sender].pointsIdList[index];\n        Point memory p = users[msg.sender].points[pointId];\n        return (pointId, p.heading, p.section, p.text, p.date);\n    }\n\n    function getPendingVerificationsLength() public view\n    returns (uint) {\n        require(users[msg.sender].exist);\n        return users[msg.sender].pendingVerifications.length;\n    }\n\n    //returns owner id, name, pointId, heading, section, text, date\n    function getPendingVerificationByIndex(uint index) public view\n    returns (string memory, string memory, uint, string memory, string memory, string memory, string memory) {\n        require(users[msg.sender].exist);\n        require(index < users[msg.sender].pendingVerifications.length);\n        PointVerification memory pv = users[msg.sender].pendingVerifications[index];\n        Point memory p = users[pv.owner].points[pv.pointId];\n        return (addressId[pv.owner], users[pv.owner].name, pv.pointId, p.heading, p.section, p.text, p.date);\n    }\n\n    function getPendingVerifiersLength(uint pointId) public view\n    returns (uint){\n        require(users[msg.sender].exist);\n        require(users[msg.sender].points[pointId].exist);\n        return users[msg.sender].points[pointId].pendingVerifiers.length;\n    }\n\n    function getApprovedVerifiersLength(uint pointId) public view\n    returns (uint){\n        require(users[msg.sender].exist);\n        require(users[msg.sender].points[pointId].exist);\n        return users[msg.sender].points[pointId].approvedVerifiers.length;\n    }\n\n    function getPendingVerifiersByIndex(uint pointId, uint index) public view\n    returns (string memory){\n        require(users[msg.sender].exist);\n        require(users[msg.sender].points[pointId].exist);\n        Point memory p = users[msg.sender].points[pointId];\n        require(index < p.pendingVerifiers.length);\n        return addressId[p.pendingVerifiers[index]];\n    }\n\n    function getApprovedVerifiersByIndex(uint pointId, uint index) public view\n    returns (string memory){\n        require(users[msg.sender].exist);\n        require(users[msg.sender].points[pointId].exist);\n        Point memory p = users[msg.sender].points[pointId];\n        require(index < p.approvedVerifiers.length);\n        return addressId[p.approvedVerifiers[index]];\n    }\n\n\n    function deletePoint(uint pointId) public {\n        require(users[msg.sender].exist);\n        require(users[msg.sender].points[pointId].exist);\n        address[] memory pendingVerifiers = users[msg.sender].points[pointId].pendingVerifiers;\n        for (uint i=0 ; i< pendingVerifiers.length; i++){\n            address verifier = pendingVerifiers[i];\n            uint length = users[verifier].pendingVerifications.length;\n            bool found = false;\n            for(uint j=0; j< length; j++){\n                if (users[verifier].pendingVerifications[j].owner == msg.sender\n                    && users[verifier].pendingVerifications[j].pointId == pointId){\n                    found = true;\n                }\n                if (found && j < length-1){\n                    users[verifier].pendingVerifications[j] = users[verifier].pendingVerifications[j+1];\n                }\n            }\n            delete users[verifier].pendingVerifications[length-1];\n            users[verifier].pendingVerifications.length--;\n        }\n        uint length = users[msg.sender].pointsIdList.length;\n        bool found = false;\n        for(uint i=0; i< length; i++){\n            if (users[msg.sender].pointsIdList[i] == pointId){\n                found = true;\n            }\n            if (found && i < length-1){\n                users[msg.sender].pointsIdList[i] = users[msg.sender].pointsIdList[i+1];\n            }\n        }\n        delete users[msg.sender].pointsIdList[length-1];\n        users[msg.sender].pointsIdList.length--;\n        delete users[msg.sender].points[pointId];\n        emit deletePointEvent();\n    }\n\n    function addVerifier(uint pointId, string memory verifierId) public {\n        require(users[msg.sender].exist);\n        address verifierAddress = idAddress[verifierId];\n        require(users[verifierAddress].exist);\n        require(users[msg.sender].points[pointId].exist);\n        address[] memory pendingVerifiers = users[msg.sender].points[pointId].pendingVerifiers;\n        for(uint i=0; i< pendingVerifiers.length; i++){\n            if(pendingVerifiers[i] == verifierAddress){\n                return;\n            }\n        }\n        address[] memory approvedVerifiers = users[msg.sender].points[pointId].approvedVerifiers;\n        for(uint i=0; i< approvedVerifiers.length; i++){\n            if(approvedVerifiers[i] == verifierAddress){\n                return;\n            }\n        }\n        users[msg.sender].points[pointId].pendingVerifiers.push(verifierAddress);\n        PointVerification memory v;\n        v.owner = msg.sender;\n        v.pointId = pointId;\n        users[verifierAddress].pendingVerifications.push(v);\n        emit addVerifierEvent();\n    }\n\n    function respondPoint(uint index, bool response) public {\n        require(users[msg.sender].exist);\n        require(index < users[msg.sender].pendingVerifications.length);\n        PointVerification memory p = users[msg.sender].pendingVerifications[index];\n        if (response){\n            users[p.owner].points[p.pointId].approvedVerifiers.push(msg.sender);\n        }\n\n        //delete one element of pendingVerifiers of point owner\n        uint length = users[p.owner].points[p.pointId].pendingVerifiers.length;\n        bool found = false;\n        for (uint i = 0; i<length; i++){\n            if (users[p.owner].points[p.pointId].pendingVerifiers[i] == msg.sender){\n                found = true;\n            }\n            if(found && i<length-1){\n                users[p.owner].points[p.pointId].pendingVerifiers[i] = users[p.owner].points[p.pointId].pendingVerifiers[i+1];\n            }\n        }\n        delete users[p.owner].points[p.pointId].pendingVerifiers[length-1];\n        users[p.owner].points[p.pointId].pendingVerifiers.length--;\n\n        //delete pendingVerifications of msg.sender\n        length = users[msg.sender].pendingVerifications.length;\n        for (uint i = index; i<length-1; i++){\n            users[msg.sender].pendingVerifications[i] = users[msg.sender].pendingVerifications[i+1];\n        }\n        delete users[msg.sender].pendingVerifications[length-1];\n        users[msg.sender].pendingVerifications.length--;      \n        emit respondPointEvent();\n    }\n\n    // function isConnection(address addr) public view\n    // returns (bool){\n    //     require(users[msg.sender].exist);\n    //     require(users[addr].exist);\n    //     uint length = users[msg.sender].connections.length;\n    //     for (uint i = 0; i<length-1; i++){\n    //         if(addr == users[msg.sender].connections[i]){\n    //             return true;\n    //         }\n    //     }\n    //     return false;\n    // }\n\n    function addConnection(address addr) public {\n        require(users[msg.sender].exist);\n        require(users[addr].exist);\n        // require(!isConnection(addressId[addr]));\n        users[msg.sender].connections.push(addr);\n    }\n\n    // function removeConnection(address addr) public {\n    //     require(users[msg.sender].exist);\n    //     require(users[addr].exist);\n    //     // require(isConnection(addressId[addr]));\n    //     uint length = users[msg.sender].connections.length;\n    //     bool found = false;\n    //     for(uint i=0; i< length; i++){\n    //         if (users[msg.sender].connections[i] == addr){\n    //             found = true;\n    //         }\n    //         if (found && i < length-1){\n    //             users[msg.sender].connections[i] = users[msg.sender].connections[i+1];\n    //         }\n    //     }\n    //     delete users[msg.sender].connections[length-1];\n    //     users[msg.sender].connections.length--;\n    // }\n\n    function getConnectionsLength() public view\n    returns (uint){\n        require(users[msg.sender].exist);\n        return users[msg.sender].connections.length;\n    }\n\n    function getConnectionsByIndex(uint idx) public view\n    returns (address){\n        require(users[msg.sender].exist);\n        require(idx < users[msg.sender].connections.length);\n        // User memory u = users[users[msg.sender].connections[idx]];\n        return users[msg.sender].connections[idx];\n    }\n}",
  "sourcePath": "/home/kunal/Documents/sem7/EE465/Blockchain-Project/contracts/Network.sol",
  "compiler": {
    "name": "solc",
    "version": "0.5.8+commit.23d335f2.Emscripten.clang"
  },
  "schemaVersion": "3.0.16",
  "updatedAt": "2019-10-16T10:36:25.465Z",
  "devdoc": {
    "methods": {}
  },
  "userdoc": {
    "methods": {}
  }
}