{
  "contractName": "Network",
  "abi": [
    {
      "constant": true,
      "inputs": [
        {
          "name": "",
          "type": "address"
        }
      ],
      "name": "users",
      "outputs": [
        {
          "name": "name",
          "type": "string"
        },
        {
          "name": "exist",
          "type": "bool"
        }
      ],
      "payable": false,
      "stateMutability": "view",
      "type": "function"
    },
    {
      "inputs": [],
      "payable": false,
      "stateMutability": "nonpayable",
      "type": "constructor"
    },
    {
      "constant": false,
      "inputs": [
        {
          "name": "name",
          "type": "string"
        }
      ],
      "name": "addUser",
      "outputs": [],
      "payable": false,
      "stateMutability": "nonpayable",
      "type": "function"
    },
    {
      "constant": false,
      "inputs": [
        {
          "name": "text",
          "type": "string"
        }
      ],
      "name": "addPoint",
      "outputs": [],
      "payable": false,
      "stateMutability": "nonpayable",
      "type": "function"
    },
    {
      "constant": false,
      "inputs": [
        {
          "name": "pointIndex",
          "type": "uint256"
        },
        {
          "name": "verifierAddress",
          "type": "address"
        }
      ],
      "name": "addVerifier",
      "outputs": [],
      "payable": false,
      "stateMutability": "nonpayable",
      "type": "function"
    }
  ],
  "bytecode": "0x608060405234801561001057600080fd5b5061091d806100206000396000f3fe608060405234801561001057600080fd5b506004361061004c5760003560e01c806318b8275a14610051578063a87430ba1461010c578063b2832096146101d4578063d8b8b81914610222575b600080fd5b61010a6004803603602081101561006757600080fd5b810190808035906020019064010000000081111561008457600080fd5b82018360208201111561009657600080fd5b803590602001918460018302840111640100000000831117156100b857600080fd5b91908080601f016020809104026020016040519081016040528093929190818152602001838380828437600081840152601f19601f8201169050808301925050505050505091929192905050506102dd565b005b61014e6004803603602081101561012257600080fd5b81019080803573ffffffffffffffffffffffffffffffffffffffff169060200190929190505050610390565b604051808060200183151515158152602001828103825284818151815260200191508051906020019080838360005b8381101561019857808201518184015260208101905061017d565b50505050905090810190601f1680156101c55780820380516001836020036101000a031916815260200191505b50935050505060405180910390f35b610220600480360360408110156101ea57600080fd5b8101908080359060200190929190803573ffffffffffffffffffffffffffffffffffffffff169060200190929190505050610459565b005b6102db6004803603602081101561023857600080fd5b810190808035906020019064010000000081111561025557600080fd5b82018360208201111561026757600080fd5b8035906020019184600183028401116401000000008311171561028957600080fd5b91908080601f016020809104026020016040519081016040528093929190818152602001838380828437600081840152601f19601f8201169050808301925050505050505091929192905050506105ce565b005b806000803373ffffffffffffffffffffffffffffffffffffffff1673ffffffffffffffffffffffffffffffffffffffff16815260200190815260200160002060000190805190602001906103329291906106e5565b5060016000803373ffffffffffffffffffffffffffffffffffffffff1673ffffffffffffffffffffffffffffffffffffffff16815260200190815260200160002060020160006101000a81548160ff02191690831515021790555050565b6000602052806000526040600020600091509050806000018054600181600116156101000203166002900480601f01602080910402602001604051908101604052809291908181526020018280546001816001161561010002031660029004801561043c5780601f106104115761010080835404028352916020019161043c565b820191906000526020600020905b81548152906001019060200180831161041f57829003601f168201915b5050505050908060020160009054906101000a900460ff16905082565b6000803373ffffffffffffffffffffffffffffffffffffffff1673ffffffffffffffffffffffffffffffffffffffff16815260200190815260200160002060020160009054906101000a900460ff166104b157600080fd5b6000808273ffffffffffffffffffffffffffffffffffffffff1673ffffffffffffffffffffffffffffffffffffffff16815260200190815260200160002060020160009054906101000a900460ff1661050957600080fd5b6000803373ffffffffffffffffffffffffffffffffffffffff1673ffffffffffffffffffffffffffffffffffffffff168152602001908152602001600020600101828154811061055557fe5b90600052602060002090600202016001018190806001815401808255809150509060018203906000526020600020016000909192909190916101000a81548173ffffffffffffffffffffffffffffffffffffffff021916908373ffffffffffffffffffffffffffffffffffffffff160217905550505050565b6000803373ffffffffffffffffffffffffffffffffffffffff1673ffffffffffffffffffffffffffffffffffffffff16815260200190815260200160002060020160009054906101000a900460ff1661062657600080fd5b61062e610765565b8181600001819052506000803373ffffffffffffffffffffffffffffffffffffffff1673ffffffffffffffffffffffffffffffffffffffff168152602001908152602001600020600101819080600181540180825580915050906001820390600052602060002090600202016000909192909190915060008201518160000190805190602001906106c092919061077f565b5060208201518160010190805190602001906106dd9291906107ff565b505050505050565b828054600181600116156101000203166002900490600052602060002090601f016020900481019282601f1061072657805160ff1916838001178555610754565b82800160010185558215610754579182015b82811115610753578251825591602001919060010190610738565b5b5090506107619190610889565b5090565b604051806040016040528060608152602001606081525090565b828054600181600116156101000203166002900490600052602060002090601f016020900481019282601f106107c057805160ff19168380011785556107ee565b828001600101855582156107ee579182015b828111156107ed5782518255916020019190600101906107d2565b5b5090506107fb9190610889565b5090565b828054828255906000526020600020908101928215610878579160200282015b828111156108775782518260006101000a81548173ffffffffffffffffffffffffffffffffffffffff021916908373ffffffffffffffffffffffffffffffffffffffff1602179055509160200191906001019061081f565b5b50905061088591906108ae565b5090565b6108ab91905b808211156108a757600081600090555060010161088f565b5090565b90565b6108ee91905b808211156108ea57600081816101000a81549073ffffffffffffffffffffffffffffffffffffffff0219169055506001016108b4565b5090565b9056fea165627a7a72305820b865a44b965f57e5abea307fb4b8ac93164c0d6efc060e806296af98d2d2cc840029",
  "source": "pragma solidity 0.5.8;\n\ncontract Network {\n    // Model a Candidate\n    struct Point{\n        string text;\n        address[] verifiers;\n    }\n\n    struct User{\n        string name;\n        Point[] points;\n        bool exist;\n        // pendingVerifications;\n    }\n\n    mapping(address => User) public users;\n    // event votedEvent (\n    //     uint indexed _candidateId\n    // );\n\n    constructor () public {\n        // addCandidate(\"Candidate 1\");\n        // addCandidate(\"Candidate 2\");\n    }\n\n    function addUser(string memory name) public {\n        users[msg.sender].name = name;\n        users[msg.sender].exist = true;\n    }\n\n    function addPoint(string memory text) public {\n        require(users[msg.sender].exist);\n        Point memory p;\n        p.text = text;\n        users[msg.sender].points.push(p);\n    }\n    function addVerifier(uint pointIndex, address verifierAddress) public {\n        require(users[msg.sender].exist);\n        require(users[verifierAddress].exist);\n        users[msg.sender].points[pointIndex].verifiers.push(verifierAddress);\n    }\n\n    // function getUser() constant\n    // returns (User){\n    //     return users[msg.sender];\n    // }\n    // function getPoint(uint index)  constant\n    // returns (Point){\n    //     return users[msg.sender].points[index];\n    // }\n    // function getVerifier(uint index1, uint index2)\n    // constant\n    // returns (address){\n    //     return users[msg.sender].points[index1].verifiers[index2];\n    // }\n\n    // function addCandidate (string memory _name) public {\n    //     candidatesCount ++;\n    //     candidates[candidatesCount] = Candidate(candidatesCount, _name, 0);\n    // }\n\n    // function vote (uint _candidateId) public {\n    //     // require that they haven't voted before\n    //     require(!voters[msg.sender]);\n\n    //     // require a valid candidate\n    //     require(_candidateId > 0 && _candidateId <= candidatesCount);\n\n    //     // record that voter has voted\n    //     voters[msg.sender] = true;\n\n    //     // update candidate vote Count\n    //     candidates[_candidateId].voteCount ++;\n\n    //     // trigger voted event\n    //     emit votedEvent(_candidateId);\n    // }\n}",
  "sourcePath": "/home/kunal/Documents/sem7/EE465/Blockchain-Project/contracts/Network.sol",
  "compiler": {
    "name": "solc",
    "version": "0.5.8+commit.23d335f2.Emscripten.clang"
  },
  "schemaVersion": "3.0.16",
  "updatedAt": "2019-10-03T08:48:52.164Z",
  "devdoc": {
    "methods": {}
  },
  "userdoc": {
    "methods": {}
  }
}